{
	"contractName": "PasswordManager",
	"abi": [
		{
			"constant": false,
			"inputs": [
				{
					"internalType": "string",
					"name": "website",
					"type": "string"
				},
				{
					"internalType": "string",
					"name": "username",
					"type": "string"
				},
				{
					"internalType": "string",
					"name": "password",
					"type": "string"
				}
			],
			"name": "saveCredentials",
			"outputs": [],
			"payable": false,
			"stateMutability": "nonpayable",
			"type": "function"
		},
		{
			"constant": true,
			"inputs": [
				{
					"internalType": "string",
					"name": "website",
					"type": "string"
				}
			],
			"name": "getCredentials",
			"outputs": [
				{
					"internalType": "string",
					"name": "",
					"type": "string"
				},
				{
					"internalType": "string",
					"name": "",
					"type": "string"
				}
			],
			"payable": false,
			"stateMutability": "view",
			"type": "function"
		},
		{
			"constant": true,
			"inputs": [],
			"name": "getAllCredentialsForCurrentUser",
			"outputs": [
				{
					"internalType": "string[]",
					"name": "websites",
					"type": "string[]"
				},
				{
					"internalType": "string[]",
					"name": "usernames",
					"type": "string[]"
				},
				{
					"internalType": "string[]",
					"name": "passwords",
					"type": "string[]"
				}
			],
			"payable": false,
			"stateMutability": "view",
			"type": "function"
		},
		{
			"constant": false,
			"inputs": [
				{
					"internalType": "string",
					"name": "website",
					"type": "string"
				}
			],
			"name": "deleteCredentials",
			"outputs": [],
			"payable": false,
			"stateMutability": "nonpayable",
			"type": "function"
		}
	],
	"bytecode": "0x608060405234801561001057600080fd5b50611429806100206000396000f3fe608060405234801561001057600080fd5b506004361061004c5760003560e01c80631ec2f79a1461005157806348c248ca14610071578063eda586f51461008d578063f6b1a22b146100a9575b600080fd5b6100596100da565b60405161006893929190611206565b60405180910390f35b61008b60048036036100869190810190610f21565b6104ec565b005b6100a760048036036100a29190810190610ee0565b610628565b005b6100c360048036036100be9190810190610ee0565b610992565b6040516100d1929190611252565b60405180910390f35b60608060606000600160003373ffffffffffffffffffffffffffffffffffffffff1673ffffffffffffffffffffffffffffffffffffffff1681526020019081526020016000208054905090508060405190808252806020026020018201604052801561015a57816020015b60608152602001906001900390816101455790505b5093508060405190808252806020026020018201604052801561019157816020015b606081526020019060019003908161017c5790505b509250806040519080825280602002602001820160405280156101c857816020015b60608152602001906001900390816101b35790505b50915060008090505b818110156104dc576060600160003373ffffffffffffffffffffffffffffffffffffffff1673ffffffffffffffffffffffffffffffffffffffff168152602001908152602001600020828154811061022557fe5b906000526020600020018054600181600116156101000203166002900480601f0160208091040260200160405190810160405280929190818152602001828054600181600116156101000203166002900480156102c35780601f10610298576101008083540402835291602001916102c3565b820191906000526020600020905b8154815290600101906020018083116102a657829003601f168201915b505050505090506102d2610c7e565b6000803373ffffffffffffffffffffffffffffffffffffffff1673ffffffffffffffffffffffffffffffffffffffff1681526020019081526020016000208260405161031e91906111d8565b9081526020016040518091039020604051806040016040529081600082018054600181600116156101000203166002900480601f0160208091040260200160405190810160405280929190818152602001828054600181600116156101000203166002900480156103d05780601f106103a5576101008083540402835291602001916103d0565b820191906000526020600020905b8154815290600101906020018083116103b357829003601f168201915b50505050508152602001600182018054600181600116156101000203166002900480601f0160208091040260200160405190810160405280929190818152602001828054600181600116156101000203166002900480156104725780601f1061044757610100808354040283529160200191610472565b820191906000526020600020905b81548152906001019060200180831161045557829003601f168201915b50505050508152505090508187848151811061048a57fe5b602002602001018190525080600001518684815181106104a657fe5b602002602001018190525080602001518584815181106104c257fe5b6020026020010181905250505080806001019150506101d1565b5083838393509350935050909192565b6040518060400160405280838152602001828152506000803373ffffffffffffffffffffffffffffffffffffffff1673ffffffffffffffffffffffffffffffffffffffff1681526020019081526020016000208460405161054d91906111d8565b90815260200160405180910390206000820151816000019080519060200190610577929190610c98565b506020820151816001019080519060200190610594929190610c98565b509050506105a23384610b62565b61062357600160003373ffffffffffffffffffffffffffffffffffffffff1673ffffffffffffffffffffffffffffffffffffffff168152602001908152602001600020839080600181540180825580915050906001820390600052602060002001600090919290919091509080519060200190610620929190610d18565b50505b505050565b6106323382610b62565b610671576040517f08c379a000000000000000000000000000000000000000000000000000000000815260040161066890611289565b60405180910390fd5b6000803373ffffffffffffffffffffffffffffffffffffffff1673ffffffffffffffffffffffffffffffffffffffff168152602001908152602001600020816040516106bd91906111d8565b9081526020016040518091039020600080820160006106dc9190610d98565b6001820160006106ec9190610d98565b5050600080600090505b600160003373ffffffffffffffffffffffffffffffffffffffff1673ffffffffffffffffffffffffffffffffffffffff168152602001908152602001600020805490508110156107fc578260405160200161075191906111d8565b60405160208183030381529060405280519060200120600160003373ffffffffffffffffffffffffffffffffffffffff1673ffffffffffffffffffffffffffffffffffffffff16815260200190815260200160002082815481106107b157fe5b906000526020600020016040516020016107cb91906111ef565b6040516020818303038152906040528051906020012014156107ef578091506107fc565b80806001019150506106f6565b5060008190505b60018060003373ffffffffffffffffffffffffffffffffffffffff1673ffffffffffffffffffffffffffffffffffffffff168152602001908152602001600020805490500381101561092757600160003373ffffffffffffffffffffffffffffffffffffffff1673ffffffffffffffffffffffffffffffffffffffff168152602001908152602001600020600182018154811061089c57fe5b90600052602060002001600160003373ffffffffffffffffffffffffffffffffffffffff1673ffffffffffffffffffffffffffffffffffffffff16815260200190815260200160002082815481106108f057fe5b906000526020600020019080546001816001161561010002031660029004610919929190610de0565b508080600101915050610803565b50600160003373ffffffffffffffffffffffffffffffffffffffff1673ffffffffffffffffffffffffffffffffffffffff16815260200190815260200160002080548061097057fe5b60019003818190600052602060002001600061098c9190610d98565b90555050565b60608061099d610c7e565b6000803373ffffffffffffffffffffffffffffffffffffffff1673ffffffffffffffffffffffffffffffffffffffff168152602001908152602001600020846040516109e991906111d8565b9081526020016040518091039020604051806040016040529081600082018054600181600116156101000203166002900480601f016020809104026020016040519081016040528092919081815260200182805460018160011615610100020316600290048015610a9b5780601f10610a7057610100808354040283529160200191610a9b565b820191906000526020600020905b815481529060010190602001808311610a7e57829003601f168201915b50505050508152602001600182018054600181600116156101000203166002900480601f016020809104026020016040519081016040528092919081815260200182805460018160011615610100020316600290048015610b3d5780601f10610b1257610100808354040283529160200191610b3d565b820191906000526020600020905b815481529060010190602001808311610b2057829003601f168201915b5050505050815250509050806000015181602001518191508090509250925050915091565b600080600090505b600160008573ffffffffffffffffffffffffffffffffffffffff1673ffffffffffffffffffffffffffffffffffffffff16815260200190815260200160002080549050811015610c725782604051602001610bc591906111d8565b60405160208183030381529060405280519060200120600160008673ffffffffffffffffffffffffffffffffffffffff1673ffffffffffffffffffffffffffffffffffffffff1681526020019081526020016000208281548110610c2557fe5b90600052602060002001604051602001610c3f91906111ef565b604051602081830303815290604052805190602001201415610c65576001915050610c78565b8080600101915050610b6a565b50600090505b92915050565b604051806040016040528060608152602001606081525090565b828054600181600116156101000203166002900490600052602060002090601f016020900481019282601f10610cd957805160ff1916838001178555610d07565b82800160010185558215610d07579182015b82811115610d06578251825591602001919060010190610ceb565b5b509050610d149190610e67565b5090565b828054600181600116156101000203166002900490600052602060002090601f016020900481019282601f10610d5957805160ff1916838001178555610d87565b82800160010185558215610d87579182015b82811115610d86578251825591602001919060010190610d6b565b5b509050610d949190610e67565b5090565b50805460018160011615610100020316600290046000825580601f10610dbe5750610ddd565b601f016020900490600052602060002090810190610ddc9190610e67565b5b50565b828054600181600116156101000203166002900490600052602060002090601f016020900481019282601f10610e195780548555610e56565b82800160010185558215610e5657600052602060002091601f016020900482015b82811115610e55578254825591600101919060010190610e3a565b5b509050610e639190610e67565b5090565b610e8991905b80821115610e85576000816000905550600101610e6d565b5090565b90565b600082601f830112610e9d57600080fd5b8135610eb0610eab826112d6565b6112a9565b91508082526020830160208301858383011115610ecc57600080fd5b610ed7838284611393565b50505092915050565b600060208284031215610ef257600080fd5b600082013567ffffffffffffffff811115610f0c57600080fd5b610f1884828501610e8c565b91505092915050565b600080600060608486031215610f3657600080fd5b600084013567ffffffffffffffff811115610f5057600080fd5b610f5c86828701610e8c565b935050602084013567ffffffffffffffff811115610f7957600080fd5b610f8586828701610e8c565b925050604084013567ffffffffffffffff811115610fa257600080fd5b610fae86828701610e8c565b9150509250925092565b6000610fc483836110ab565b905092915050565b6000610fd782611327565b610fe18185611355565b935083602082028501610ff385611302565b8060005b8581101561102f57848403895281516110108582610fb8565b945061101b83611348565b925060208a01995050600181019050610ff7565b50829750879550505050505092915050565b600061104c8261133d565b6110568185611377565b93506110668185602086016113a2565b61106f816113d5565b840191505092915050565b60006110858261133d565b61108f8185611388565b935061109f8185602086016113a2565b80840191505092915050565b60006110b682611332565b6110c08185611366565b93506110d08185602086016113a2565b6110d9816113d5565b840191505092915050565b60008154600181166000811461110157600181146111265761116a565b607f60028304166111128187611388565b955060ff198316865280860193505061116a565b600282046111348187611388565b955061113f85611312565b60005b8281101561116157815481890152600182019150602081019050611142565b82880195505050505b505092915050565b600061117f602483611377565b91507f5765627369746520646f6573206e6f7420657869737420666f7220746869732060008301527f75736572000000000000000000000000000000000000000000000000000000006020830152604082019050919050565b60006111e4828461107a565b915081905092915050565b60006111fb82846110e4565b915081905092915050565b600060608201905081810360008301526112208186610fcc565b905081810360208301526112348185610fcc565b905081810360408301526112488184610fcc565b9050949350505050565b6000604082019050818103600083015261126c8185611041565b905081810360208301526112808184611041565b90509392505050565b600060208201905081810360008301526112a281611172565b9050919050565b6000604051905081810181811067ffffffffffffffff821117156112cc57600080fd5b8060405250919050565b600067ffffffffffffffff8211156112ed57600080fd5b601f19601f8301169050602081019050919050565b6000819050602082019050919050565b60008190508160005260206000209050919050565b600081519050919050565b600081519050919050565b600081519050919050565b6000602082019050919050565b600082825260208201905092915050565b600082825260208201905092915050565b600082825260208201905092915050565b600081905092915050565b82818337600083830152505050565b60005b838110156113c05780820151818401526020810190506113a5565b838111156113cf576000848401525b50505050565b6000601f19601f830116905091905056fea365627a7a723158200979e695f1c83fc91967ac920ecc7c2269e6f89117f39fb1a8ef462e2d0d97566c6578706572696d656e74616cf564736f6c63430005100040",
	"source": "// SPDX-License-Identifier: Unlicense\r\npragma solidity >=0.4.22 <0.9.0;\r\npragma experimental ABIEncoderV2;\r\n\r\ncontract PasswordManager {\r\n    \r\n    struct Credentials {\r\n        string username;\r\n        string password;\r\n    }\r\n    \r\n    mapping (address => mapping (string => Credentials)) private users;\r\n    mapping (address => string[]) private userWebsites;\r\n    \r\n    function saveCredentials(string memory website, string memory username, string memory password) public {\r\n        users[msg.sender][website] = Credentials(username, password);\r\n        if (!websiteExists(msg.sender, website)) {\r\n            userWebsites[msg.sender].push(website);\r\n        }\r\n    }\r\n    \r\n    function getCredentials(string memory website) public view returns (string memory, string memory) {\r\n        Credentials memory creds = users[msg.sender][website];\r\n        return (creds.username, creds.password);\r\n    }\r\n    \r\n    function getAllCredentialsForCurrentUser() public view returns (string[] memory websites, string[] memory usernames, string[] memory passwords) {\r\n        uint256 count = userWebsites[msg.sender].length;\r\n        websites = new string[](count);\r\n        usernames = new string[](count);\r\n        passwords = new string[](count);\r\n        for (uint256 i = 0; i < count; i++) {\r\n            string memory website = userWebsites[msg.sender][i];\r\n            Credentials memory creds = users[msg.sender][website];\r\n            websites[i] = website;\r\n            usernames[i] = creds.username;\r\n            passwords[i] = creds.password;\r\n        }\r\n        return (websites, usernames, passwords);\r\n    }\r\n    \r\nfunction deleteCredentials(string memory website) public {\r\n    require(websiteExists(msg.sender, website), \"Website does not exist for this user\");\r\n    delete users[msg.sender][website];\r\n    uint256 indexToDelete;\r\n    for (uint256 i = 0; i < userWebsites[msg.sender].length; i++) {\r\n        if (keccak256(abi.encodePacked(userWebsites[msg.sender][i])) == keccak256(abi.encodePacked(website))) {\r\n            indexToDelete = i;\r\n            break;\r\n        }\r\n    }\r\n    for (uint256 i = indexToDelete; i < userWebsites[msg.sender].length - 1; i++) {\r\n        userWebsites[msg.sender][i] = userWebsites[msg.sender][i+1];\r\n    }\r\n    userWebsites[msg.sender].pop();\r\n}\r\n\r\n    \r\n    function websiteExists(address user, string memory website) private view returns (bool) {\r\n        for (uint i = 0; i < userWebsites[user].length; i++) {\r\n            if (keccak256(abi.encodePacked(userWebsites[user][i])) == keccak256(abi.encodePacked(website))) {\r\n                return true;\r\n            }\r\n        }\r\n        return false;\r\n    }\r\n}",
	"sourcePath": "C:\\Users\\ksr\\Desktop\\Mini Project\\dpm-app\\contracts\\PasswordManager.sol",
	"compiler": {
		"name": "solc",
		"version": "0.5.16+commit.9c3226ce.Emscripten.clang"
	},
	"schemaVersion": "3.4.13",
	"updatedAt": "2023-04-14T12:37:52.748Z",
	"networkType": "ethereum",
	"devdoc": {
		"methods": {}
	},
	"userdoc": {
		"methods": {}
	}
}